{
  "_format": "hh3-artifact-1",
  "contractName": "InternBadges",
  "sourceName": "contracts/InternBadges.sol",
  "abi": [
    {
      "inputs": [],
      "stateMutability": "nonpayable",
      "type": "constructor"
    },
    {
      "inputs": [
        {
          "internalType": "address",
          "name": "sender",
          "type": "address"
        },
        {
          "internalType": "uint256",
          "name": "tokenId",
          "type": "uint256"
        },
        {
          "internalType": "address",
          "name": "owner",
          "type": "address"
        }
      ],
      "name": "ERC721IncorrectOwner",
      "type": "error"
    },
    {
      "inputs": [
        {
          "internalType": "address",
          "name": "operator",
          "type": "address"
        },
        {
          "internalType": "uint256",
          "name": "tokenId",
          "type": "uint256"
        }
      ],
      "name": "ERC721InsufficientApproval",
      "type": "error"
    },
    {
      "inputs": [
        {
          "internalType": "address",
          "name": "approver",
          "type": "address"
        }
      ],
      "name": "ERC721InvalidApprover",
      "type": "error"
    },
    {
      "inputs": [
        {
          "internalType": "address",
          "name": "operator",
          "type": "address"
        }
      ],
      "name": "ERC721InvalidOperator",
      "type": "error"
    },
    {
      "inputs": [
        {
          "internalType": "address",
          "name": "owner",
          "type": "address"
        }
      ],
      "name": "ERC721InvalidOwner",
      "type": "error"
    },
    {
      "inputs": [
        {
          "internalType": "address",
          "name": "receiver",
          "type": "address"
        }
      ],
      "name": "ERC721InvalidReceiver",
      "type": "error"
    },
    {
      "inputs": [
        {
          "internalType": "address",
          "name": "sender",
          "type": "address"
        }
      ],
      "name": "ERC721InvalidSender",
      "type": "error"
    },
    {
      "inputs": [
        {
          "internalType": "uint256",
          "name": "tokenId",
          "type": "uint256"
        }
      ],
      "name": "ERC721NonexistentToken",
      "type": "error"
    },
    {
      "inputs": [
        {
          "internalType": "address",
          "name": "owner",
          "type": "address"
        }
      ],
      "name": "OwnableInvalidOwner",
      "type": "error"
    },
    {
      "inputs": [
        {
          "internalType": "address",
          "name": "account",
          "type": "address"
        }
      ],
      "name": "OwnableUnauthorizedAccount",
      "type": "error"
    },
    {
      "anonymous": false,
      "inputs": [
        {
          "indexed": true,
          "internalType": "address",
          "name": "owner",
          "type": "address"
        },
        {
          "indexed": true,
          "internalType": "address",
          "name": "approved",
          "type": "address"
        },
        {
          "indexed": true,
          "internalType": "uint256",
          "name": "tokenId",
          "type": "uint256"
        }
      ],
      "name": "Approval",
      "type": "event"
    },
    {
      "anonymous": false,
      "inputs": [
        {
          "indexed": true,
          "internalType": "address",
          "name": "owner",
          "type": "address"
        },
        {
          "indexed": true,
          "internalType": "address",
          "name": "operator",
          "type": "address"
        },
        {
          "indexed": false,
          "internalType": "bool",
          "name": "approved",
          "type": "bool"
        }
      ],
      "name": "ApprovalForAll",
      "type": "event"
    },
    {
      "anonymous": false,
      "inputs": [
        {
          "indexed": true,
          "internalType": "address",
          "name": "intern",
          "type": "address"
        },
        {
          "indexed": false,
          "internalType": "uint256",
          "name": "tokenId",
          "type": "uint256"
        },
        {
          "indexed": false,
          "internalType": "string",
          "name": "skill",
          "type": "string"
        },
        {
          "indexed": false,
          "internalType": "string",
          "name": "tokenURI",
          "type": "string"
        }
      ],
      "name": "BadgeMinted",
      "type": "event"
    },
    {
      "anonymous": false,
      "inputs": [
        {
          "indexed": false,
          "internalType": "uint256",
          "name": "_fromTokenId",
          "type": "uint256"
        },
        {
          "indexed": false,
          "internalType": "uint256",
          "name": "_toTokenId",
          "type": "uint256"
        }
      ],
      "name": "BatchMetadataUpdate",
      "type": "event"
    },
    {
      "anonymous": false,
      "inputs": [
        {
          "indexed": false,
          "internalType": "uint256",
          "name": "_tokenId",
          "type": "uint256"
        }
      ],
      "name": "MetadataUpdate",
      "type": "event"
    },
    {
      "anonymous": false,
      "inputs": [
        {
          "indexed": true,
          "internalType": "address",
          "name": "previousOwner",
          "type": "address"
        },
        {
          "indexed": true,
          "internalType": "address",
          "name": "newOwner",
          "type": "address"
        }
      ],
      "name": "OwnershipTransferred",
      "type": "event"
    },
    {
      "anonymous": false,
      "inputs": [
        {
          "indexed": true,
          "internalType": "address",
          "name": "from",
          "type": "address"
        },
        {
          "indexed": true,
          "internalType": "address",
          "name": "to",
          "type": "address"
        },
        {
          "indexed": true,
          "internalType": "uint256",
          "name": "tokenId",
          "type": "uint256"
        }
      ],
      "name": "Transfer",
      "type": "event"
    },
    {
      "inputs": [
        {
          "internalType": "address",
          "name": "to",
          "type": "address"
        },
        {
          "internalType": "uint256",
          "name": "tokenId",
          "type": "uint256"
        }
      ],
      "name": "approve",
      "outputs": [],
      "stateMutability": "nonpayable",
      "type": "function"
    },
    {
      "inputs": [
        {
          "internalType": "address",
          "name": "owner",
          "type": "address"
        }
      ],
      "name": "balanceOf",
      "outputs": [
        {
          "internalType": "uint256",
          "name": "",
          "type": "uint256"
        }
      ],
      "stateMutability": "view",
      "type": "function"
    },
    {
      "inputs": [
        {
          "internalType": "uint256",
          "name": "tokenId",
          "type": "uint256"
        }
      ],
      "name": "getApproved",
      "outputs": [
        {
          "internalType": "address",
          "name": "",
          "type": "address"
        }
      ],
      "stateMutability": "view",
      "type": "function"
    },
    {
      "inputs": [
        {
          "internalType": "address",
          "name": "",
          "type": "address"
        },
        {
          "internalType": "string",
          "name": "",
          "type": "string"
        }
      ],
      "name": "hasSkillBadge",
      "outputs": [
        {
          "internalType": "bool",
          "name": "",
          "type": "bool"
        }
      ],
      "stateMutability": "view",
      "type": "function"
    },
    {
      "inputs": [
        {
          "internalType": "address",
          "name": "owner",
          "type": "address"
        },
        {
          "internalType": "address",
          "name": "operator",
          "type": "address"
        }
      ],
      "name": "isApprovedForAll",
      "outputs": [
        {
          "internalType": "bool",
          "name": "",
          "type": "bool"
        }
      ],
      "stateMutability": "view",
      "type": "function"
    },
    {
      "inputs": [
        {
          "internalType": "address",
          "name": "intern",
          "type": "address"
        },
        {
          "internalType": "string",
          "name": "skill",
          "type": "string"
        },
        {
          "internalType": "string",
          "name": "tokenURI",
          "type": "string"
        }
      ],
      "name": "mintBadge",
      "outputs": [
        {
          "internalType": "uint256",
          "name": "",
          "type": "uint256"
        }
      ],
      "stateMutability": "nonpayable",
      "type": "function"
    },
    {
      "inputs": [],
      "name": "name",
      "outputs": [
        {
          "internalType": "string",
          "name": "",
          "type": "string"
        }
      ],
      "stateMutability": "view",
      "type": "function"
    },
    {
      "inputs": [],
      "name": "owner",
      "outputs": [
        {
          "internalType": "address",
          "name": "",
          "type": "address"
        }
      ],
      "stateMutability": "view",
      "type": "function"
    },
    {
      "inputs": [
        {
          "internalType": "uint256",
          "name": "tokenId",
          "type": "uint256"
        }
      ],
      "name": "ownerOf",
      "outputs": [
        {
          "internalType": "address",
          "name": "",
          "type": "address"
        }
      ],
      "stateMutability": "view",
      "type": "function"
    },
    {
      "inputs": [],
      "name": "renounceOwnership",
      "outputs": [],
      "stateMutability": "nonpayable",
      "type": "function"
    },
    {
      "inputs": [
        {
          "internalType": "address",
          "name": "from",
          "type": "address"
        },
        {
          "internalType": "address",
          "name": "to",
          "type": "address"
        },
        {
          "internalType": "uint256",
          "name": "tokenId",
          "type": "uint256"
        }
      ],
      "name": "safeTransferFrom",
      "outputs": [],
      "stateMutability": "nonpayable",
      "type": "function"
    },
    {
      "inputs": [
        {
          "internalType": "address",
          "name": "from",
          "type": "address"
        },
        {
          "internalType": "address",
          "name": "to",
          "type": "address"
        },
        {
          "internalType": "uint256",
          "name": "tokenId",
          "type": "uint256"
        },
        {
          "internalType": "bytes",
          "name": "data",
          "type": "bytes"
        }
      ],
      "name": "safeTransferFrom",
      "outputs": [],
      "stateMutability": "nonpayable",
      "type": "function"
    },
    {
      "inputs": [
        {
          "internalType": "address",
          "name": "operator",
          "type": "address"
        },
        {
          "internalType": "bool",
          "name": "approved",
          "type": "bool"
        }
      ],
      "name": "setApprovalForAll",
      "outputs": [],
      "stateMutability": "nonpayable",
      "type": "function"
    },
    {
      "inputs": [
        {
          "internalType": "bytes4",
          "name": "interfaceId",
          "type": "bytes4"
        }
      ],
      "name": "supportsInterface",
      "outputs": [
        {
          "internalType": "bool",
          "name": "",
          "type": "bool"
        }
      ],
      "stateMutability": "view",
      "type": "function"
    },
    {
      "inputs": [],
      "name": "symbol",
      "outputs": [
        {
          "internalType": "string",
          "name": "",
          "type": "string"
        }
      ],
      "stateMutability": "view",
      "type": "function"
    },
    {
      "inputs": [
        {
          "internalType": "uint256",
          "name": "tokenId",
          "type": "uint256"
        }
      ],
      "name": "tokenURI",
      "outputs": [
        {
          "internalType": "string",
          "name": "",
          "type": "string"
        }
      ],
      "stateMutability": "view",
      "type": "function"
    },
    {
      "inputs": [
        {
          "internalType": "address",
          "name": "from",
          "type": "address"
        },
        {
          "internalType": "address",
          "name": "to",
          "type": "address"
        },
        {
          "internalType": "uint256",
          "name": "tokenId",
          "type": "uint256"
        }
      ],
      "name": "transferFrom",
      "outputs": [],
      "stateMutability": "nonpayable",
      "type": "function"
    },
    {
      "inputs": [
        {
          "internalType": "address",
          "name": "newOwner",
          "type": "address"
        }
      ],
      "name": "transferOwnership",
      "outputs": [],
      "stateMutability": "nonpayable",
      "type": "function"
    }
  ],
  "bytecode": "0x608060405234801561000f575f5ffd5b50336040518060400160405280601081526020017f496e7465726e536b696c6c4261646765000000000000000000000000000000008152506040518060400160405280600581526020017f494e54524e000000000000000000000000000000000000000000000000000000815250815f908161008b9190610423565b50806001908161009b9190610423565b5050505f73ffffffffffffffffffffffffffffffffffffffff168173ffffffffffffffffffffffffffffffffffffffff160361010e575f6040517f1e4fbdf70000000000000000000000000000000000000000000000000000000081526004016101059190610531565b60405180910390fd5b61011d8161012360201b60201c565b5061054a565b5f60075f9054906101000a900473ffffffffffffffffffffffffffffffffffffffff1690508160075f6101000a81548173ffffffffffffffffffffffffffffffffffffffff021916908373ffffffffffffffffffffffffffffffffffffffff1602179055508173ffffffffffffffffffffffffffffffffffffffff168173ffffffffffffffffffffffffffffffffffffffff167f8be0079c531659141344cd1fd0a4f28419497f9722a3daafe3b4186f6b6457e060405160405180910390a35050565b5f81519050919050565b7f4e487b71000000000000000000000000000000000000000000000000000000005f52604160045260245ffd5b7f4e487b71000000000000000000000000000000000000000000000000000000005f52602260045260245ffd5b5f600282049050600182168061026157607f821691505b6020821081036102745761027361021d565b5b50919050565b5f819050815f5260205f209050919050565b5f6020601f8301049050919050565b5f82821b905092915050565b5f600883026102d67fffffffffffffffffffffffffffffffffffffffffffffffffffffffffffffffff8261029b565b6102e0868361029b565b95508019841693508086168417925050509392505050565b5f819050919050565b5f819050919050565b5f61032461031f61031a846102f8565b610301565b6102f8565b9050919050565b5f819050919050565b61033d8361030a565b6103516103498261032b565b8484546102a7565b825550505050565b5f5f905090565b610368610359565b610373818484610334565b505050565b5b818110156103965761038b5f82610360565b600181019050610379565b5050565b601f8211156103db576103ac8161027a565b6103b58461028c565b810160208510156103c4578190505b6103d86103d08561028c565b830182610378565b50505b505050565b5f82821c905092915050565b5f6103fb5f19846008026103e0565b1980831691505092915050565b5f61041383836103ec565b9150826002028217905092915050565b61042c826101e6565b67ffffffffffffffff811115610445576104446101f0565b5b61044f825461024a565b61045a82828561039a565b5f60209050601f83116001811461048b575f8415610479578287015190505b6104838582610408565b8655506104ea565b601f1984166104998661027a565b5f5b828110156104c05784890151825560018201915060208501945060208101905061049b565b868310156104dd57848901516104d9601f8916826103ec565b8355505b6001600288020188555050505b505050505050565b5f73ffffffffffffffffffffffffffffffffffffffff82169050919050565b5f61051b826104f2565b9050919050565b61052b81610511565b82525050565b5f6020820190506105445f830184610522565b92915050565b61296e806105575f395ff3fe608060405234801561000f575f5ffd5b5060043610610114575f3560e01c8063715018a6116100a0578063b02908911161006f578063b0290891146102dc578063b88d4fde1461030c578063c87b56dd14610328578063e985e9c514610358578063f2fde38b1461038857610114565b8063715018a61461027a5780638da5cb5b1461028457806395d89b41146102a2578063a22cb465146102c057610114565b806323b872dd116100e757806323b872dd146101b257806342842e0e146101ce578063587c753d146101ea5780636352211e1461021a57806370a082311461024a57610114565b806301ffc9a71461011857806306fdde0314610148578063081812fc14610166578063095ea7b314610196575b5f5ffd5b610132600480360381019061012d9190611ccf565b6103a4565b60405161013f9190611d14565b60405180910390f35b610150610404565b60405161015d9190611d9d565b60405180910390f35b610180600480360381019061017b9190611df0565b610493565b60405161018d9190611e5a565b60405180910390f35b6101b060048036038101906101ab9190611e9d565b6104ae565b005b6101cc60048036038101906101c79190611edb565b6104c4565b005b6101e860048036038101906101e39190611edb565b6105c3565b005b61020460048036038101906101ff9190612057565b6105e2565b60405161021191906120ee565b60405180910390f35b610234600480360381019061022f9190611df0565b610790565b6040516102419190611e5a565b60405180910390f35b610264600480360381019061025f9190612107565b6107a1565b60405161027191906120ee565b60405180910390f35b610282610857565b005b61028c61086a565b6040516102999190611e5a565b60405180910390f35b6102aa610892565b6040516102b79190611d9d565b60405180910390f35b6102da60048036038101906102d5919061215c565b610922565b005b6102f660048036038101906102f1919061219a565b610938565b6040516103039190611d14565b60405180910390f35b61032660048036038101906103219190612292565b61097a565b005b610342600480360381019061033d9190611df0565b61099f565b60405161034f9190611d9d565b60405180910390f35b610372600480360381019061036d9190612312565b610a1b565b60405161037f9190611d14565b60405180910390f35b6103a2600480360381019061039d9190612107565b610aa9565b005b5f634906490660e01b7bffffffffffffffffffffffffffffffffffffffffffffffffffffffff1916827bffffffffffffffffffffffffffffffffffffffffffffffffffffffff191614806103fd57506103fc82610b2d565b5b9050919050565b60605f80546104129061237d565b80601f016020809104026020016040519081016040528092919081815260200182805461043e9061237d565b80156104895780601f1061046057610100808354040283529160200191610489565b820191905f5260205f20905b81548152906001019060200180831161046c57829003601f168201915b5050505050905090565b5f61049d82610c0e565b506104a782610c94565b9050919050565b6104c082826104bb610ccd565b610cd4565b5050565b5f73ffffffffffffffffffffffffffffffffffffffff168273ffffffffffffffffffffffffffffffffffffffff1603610534575f6040517f64a0ae9200000000000000000000000000000000000000000000000000000000815260040161052b9190611e5a565b60405180910390fd5b5f6105478383610542610ccd565b610ce6565b90508373ffffffffffffffffffffffffffffffffffffffff168173ffffffffffffffffffffffffffffffffffffffff16146105bd578382826040517f64283d7b0000000000000000000000000000000000000000000000000000000081526004016105b4939291906123ad565b60405180910390fd5b50505050565b6105dd83838360405180602001604052805f81525061097a565b505050565b5f6105eb610ef1565b60095f8573ffffffffffffffffffffffffffffffffffffffff1673ffffffffffffffffffffffffffffffffffffffff1681526020019081526020015f2083604051610636919061241c565b90815260200160405180910390205f9054906101000a900460ff1615610691576040517f08c379a0000000000000000000000000000000000000000000000000000000008152600401610688906124a2565b60405180910390fd5b5f600854905060085f8154809291906106a9906124ed565b91905055506106b88582610f78565b6106c28184610f95565b600160095f8773ffffffffffffffffffffffffffffffffffffffff1673ffffffffffffffffffffffffffffffffffffffff1681526020019081526020015f208560405161070f919061241c565b90815260200160405180910390205f6101000a81548160ff0219169083151502179055508473ffffffffffffffffffffffffffffffffffffffff167fcc59e316c74020ad37d5aef803aad2dea09231665fe38053bc7e041aa9c08b6482868660405161077d93929190612534565b60405180910390a2809150509392505050565b5f61079a82610c0e565b9050919050565b5f5f73ffffffffffffffffffffffffffffffffffffffff168273ffffffffffffffffffffffffffffffffffffffff1603610812575f6040517f89c62b640000000000000000000000000000000000000000000000000000000081526004016108099190611e5a565b60405180910390fd5b60035f8373ffffffffffffffffffffffffffffffffffffffff1673ffffffffffffffffffffffffffffffffffffffff1681526020019081526020015f20549050919050565b61085f610ef1565b6108685f610fef565b565b5f60075f9054906101000a900473ffffffffffffffffffffffffffffffffffffffff16905090565b6060600180546108a19061237d565b80601f01602080910402602001604051908101604052809291908181526020018280546108cd9061237d565b80156109185780601f106108ef57610100808354040283529160200191610918565b820191905f5260205f20905b8154815290600101906020018083116108fb57829003601f168201915b5050505050905090565b61093461092d610ccd565b83836110b2565b5050565b6009602052815f5260405f20818051602081018201805184825260208301602085012081835280955050505050505f915091509054906101000a900460ff1681565b6109858484846104c4565b610999610990610ccd565b8585858561128b565b50505050565b60606109aa82610c0e565b505f6109b4611437565b90505f6109c08461144d565b90505f8251036109d4578092505050610a16565b5f81511115610a085781816040516020016109f0929190612577565b60405160208183030381529060405292505050610a16565b610a11846114ee565b925050505b919050565b5f60055f8473ffffffffffffffffffffffffffffffffffffffff1673ffffffffffffffffffffffffffffffffffffffff1681526020019081526020015f205f8373ffffffffffffffffffffffffffffffffffffffff1673ffffffffffffffffffffffffffffffffffffffff1681526020019081526020015f205f9054906101000a900460ff16905092915050565b610ab1610ef1565b5f73ffffffffffffffffffffffffffffffffffffffff168173ffffffffffffffffffffffffffffffffffffffff1603610b21575f6040517f1e4fbdf7000000000000000000000000000000000000000000000000000000008152600401610b189190611e5a565b60405180910390fd5b610b2a81610fef565b50565b5f7f80ac58cd000000000000000000000000000000000000000000000000000000007bffffffffffffffffffffffffffffffffffffffffffffffffffffffff1916827bffffffffffffffffffffffffffffffffffffffffffffffffffffffff19161480610bf757507f5b5e139f000000000000000000000000000000000000000000000000000000007bffffffffffffffffffffffffffffffffffffffffffffffffffffffff1916827bffffffffffffffffffffffffffffffffffffffffffffffffffffffff1916145b80610c075750610c0682611554565b5b9050919050565b5f5f610c19836115bd565b90505f73ffffffffffffffffffffffffffffffffffffffff168173ffffffffffffffffffffffffffffffffffffffff1603610c8b57826040517f7e273289000000000000000000000000000000000000000000000000000000008152600401610c8291906120ee565b60405180910390fd5b80915050919050565b5f60045f8381526020019081526020015f205f9054906101000a900473ffffffffffffffffffffffffffffffffffffffff169050919050565b5f33905090565b610ce183838360016115f6565b505050565b5f5f610cf1846115bd565b90505f73ffffffffffffffffffffffffffffffffffffffff168373ffffffffffffffffffffffffffffffffffffffff1614610d3257610d318184866117b5565b5b5f73ffffffffffffffffffffffffffffffffffffffff168173ffffffffffffffffffffffffffffffffffffffff1614610dbd57610d715f855f5f6115f6565b600160035f8373ffffffffffffffffffffffffffffffffffffffff1673ffffffffffffffffffffffffffffffffffffffff1681526020019081526020015f205f82825403925050819055505b5f73ffffffffffffffffffffffffffffffffffffffff168573ffffffffffffffffffffffffffffffffffffffff1614610e3c57600160035f8773ffffffffffffffffffffffffffffffffffffffff1673ffffffffffffffffffffffffffffffffffffffff1681526020019081526020015f205f82825401925050819055505b8460025f8681526020019081526020015f205f6101000a81548173ffffffffffffffffffffffffffffffffffffffff021916908373ffffffffffffffffffffffffffffffffffffffff160217905550838573ffffffffffffffffffffffffffffffffffffffff168273ffffffffffffffffffffffffffffffffffffffff167fddf252ad1be2c89b69c2b068fc378daa952ba7f163c4a11628f55a4df523b3ef60405160405180910390a4809150509392505050565b610ef9610ccd565b73ffffffffffffffffffffffffffffffffffffffff16610f1761086a565b73ffffffffffffffffffffffffffffffffffffffff1614610f7657610f3a610ccd565b6040517f118cdaa7000000000000000000000000000000000000000000000000000000008152600401610f6d9190611e5a565b60405180910390fd5b565b610f91828260405180602001604052805f815250611878565b5050565b8060065f8481526020019081526020015f209081610fb3919061273a565b507ff8e1a15aba9398e019f0b49df1a4fde98ee17ae345cb5f6b5e2c27f5033e8ce782604051610fe391906120ee565b60405180910390a15050565b5f60075f9054906101000a900473ffffffffffffffffffffffffffffffffffffffff1690508160075f6101000a81548173ffffffffffffffffffffffffffffffffffffffff021916908373ffffffffffffffffffffffffffffffffffffffff1602179055508173ffffffffffffffffffffffffffffffffffffffff168173ffffffffffffffffffffffffffffffffffffffff167f8be0079c531659141344cd1fd0a4f28419497f9722a3daafe3b4186f6b6457e060405160405180910390a35050565b5f73ffffffffffffffffffffffffffffffffffffffff168373ffffffffffffffffffffffffffffffffffffffff1603611122575f6040517fa9fbf51f0000000000000000000000000000000000000000000000000000000081526004016111199190611e5a565b60405180910390fd5b5f73ffffffffffffffffffffffffffffffffffffffff168273ffffffffffffffffffffffffffffffffffffffff160361119257816040517f5b08ba180000000000000000000000000000000000000000000000000000000081526004016111899190611e5a565b60405180910390fd5b8060055f8573ffffffffffffffffffffffffffffffffffffffff1673ffffffffffffffffffffffffffffffffffffffff1681526020019081526020015f205f8473ffffffffffffffffffffffffffffffffffffffff1673ffffffffffffffffffffffffffffffffffffffff1681526020019081526020015f205f6101000a81548160ff0219169083151502179055508173ffffffffffffffffffffffffffffffffffffffff168373ffffffffffffffffffffffffffffffffffffffff167f17307eab39ab6107e8899845ad3d59bd9653f200f220920489ca2b5937696c318360405161127e9190611d14565b60405180910390a3505050565b5f8373ffffffffffffffffffffffffffffffffffffffff163b1115611430578273ffffffffffffffffffffffffffffffffffffffff1663150b7a02868685856040518563ffffffff1660e01b81526004016112e9949392919061285b565b6020604051808303815f875af192505050801561132457506040513d601f19601f8201168201806040525081019061132191906128b9565b60015b6113a5573d805f8114611352576040519150601f19603f3d011682016040523d82523d5f602084013e611357565b606091505b505f81510361139d57836040517f64a0ae920000000000000000000000000000000000000000000000000000000081526004016113949190611e5a565b60405180910390fd5b805160208201fd5b63150b7a0260e01b7bffffffffffffffffffffffffffffffffffffffffffffffffffffffff1916817bffffffffffffffffffffffffffffffffffffffffffffffffffffffff19161461142e57836040517f64a0ae920000000000000000000000000000000000000000000000000000000081526004016114259190611e5a565b60405180910390fd5b505b5050505050565b606060405180602001604052805f815250905090565b606060065f8381526020019081526020015f20805461146b9061237d565b80601f01602080910402602001604051908101604052809291908181526020018280546114979061237d565b80156114e25780601f106114b9576101008083540402835291602001916114e2565b820191905f5260205f20905b8154815290600101906020018083116114c557829003601f168201915b50505050509050919050565b60606114f982610c0e565b505f611503611437565b90505f8151116115215760405180602001604052805f81525061154c565b8061152b8461189b565b60405160200161153c929190612577565b6040516020818303038152906040525b915050919050565b5f7f01ffc9a7000000000000000000000000000000000000000000000000000000007bffffffffffffffffffffffffffffffffffffffffffffffffffffffff1916827bffffffffffffffffffffffffffffffffffffffffffffffffffffffff1916149050919050565b5f60025f8381526020019081526020015f205f9054906101000a900473ffffffffffffffffffffffffffffffffffffffff169050919050565b808061162e57505f73ffffffffffffffffffffffffffffffffffffffff168273ffffffffffffffffffffffffffffffffffffffff1614155b15611760575f61163d84610c0e565b90505f73ffffffffffffffffffffffffffffffffffffffff168373ffffffffffffffffffffffffffffffffffffffff16141580156116a757508273ffffffffffffffffffffffffffffffffffffffff168173ffffffffffffffffffffffffffffffffffffffff1614155b80156116ba57506116b88184610a1b565b155b156116fc57826040517fa9fbf51f0000000000000000000000000000000000000000000000000000000081526004016116f39190611e5a565b60405180910390fd5b811561175e57838573ffffffffffffffffffffffffffffffffffffffff168273ffffffffffffffffffffffffffffffffffffffff167f8c5be1e5ebec7d5bd14f71427d1e84f3dd0314c0f7b2291e5b200ac8c7c3b92560405160405180910390a45b505b8360045f8581526020019081526020015f205f6101000a81548173ffffffffffffffffffffffffffffffffffffffff021916908373ffffffffffffffffffffffffffffffffffffffff16021790555050505050565b6117c0838383611965565b611873575f73ffffffffffffffffffffffffffffffffffffffff168373ffffffffffffffffffffffffffffffffffffffff160361183457806040517f7e27328900000000000000000000000000000000000000000000000000000000815260040161182b91906120ee565b60405180910390fd5b81816040517f177e802f00000000000000000000000000000000000000000000000000000000815260040161186a9291906128e4565b60405180910390fd5b505050565b6118828383611a25565b61189661188d610ccd565b5f85858561128b565b505050565b60605f60016118a984611b18565b0190505f8167ffffffffffffffff8111156118c7576118c6611f33565b5b6040519080825280601f01601f1916602001820160405280156118f95781602001600182028036833780820191505090505b5090505f82602083010190505b60011561195a578080600190039150507f3031323334353637383961626364656600000000000000000000000000000000600a86061a8153600a858161194f5761194e61290b565b5b0494505f8503611906575b819350505050919050565b5f5f73ffffffffffffffffffffffffffffffffffffffff168373ffffffffffffffffffffffffffffffffffffffff1614158015611a1c57508273ffffffffffffffffffffffffffffffffffffffff168473ffffffffffffffffffffffffffffffffffffffff1614806119dd57506119dc8484610a1b565b5b80611a1b57508273ffffffffffffffffffffffffffffffffffffffff16611a0383610c94565b73ffffffffffffffffffffffffffffffffffffffff16145b5b90509392505050565b5f73ffffffffffffffffffffffffffffffffffffffff168273ffffffffffffffffffffffffffffffffffffffff1603611a95575f6040517f64a0ae92000000000000000000000000000000000000000000000000000000008152600401611a8c9190611e5a565b60405180910390fd5b5f611aa183835f610ce6565b90505f73ffffffffffffffffffffffffffffffffffffffff168173ffffffffffffffffffffffffffffffffffffffff1614611b13575f6040517f73c6ac6e000000000000000000000000000000000000000000000000000000008152600401611b0a9190611e5a565b60405180910390fd5b505050565b5f5f5f90507a184f03e93ff9f4daa797ed6e38ed64bf6a1f0100000000000000008310611b74577a184f03e93ff9f4daa797ed6e38ed64bf6a1f0100000000000000008381611b6a57611b6961290b565b5b0492506040810190505b6d04ee2d6d415b85acef81000000008310611bb1576d04ee2d6d415b85acef81000000008381611ba757611ba661290b565b5b0492506020810190505b662386f26fc100008310611be057662386f26fc100008381611bd657611bd561290b565b5b0492506010810190505b6305f5e1008310611c09576305f5e1008381611bff57611bfe61290b565b5b0492506008810190505b6127108310611c2e576127108381611c2457611c2361290b565b5b0492506004810190505b60648310611c515760648381611c4757611c4661290b565b5b0492506002810190505b600a8310611c60576001810190505b80915050919050565b5f604051905090565b5f5ffd5b5f5ffd5b5f7fffffffff0000000000000000000000000000000000000000000000000000000082169050919050565b611cae81611c7a565b8114611cb8575f5ffd5b50565b5f81359050611cc981611ca5565b92915050565b5f60208284031215611ce457611ce3611c72565b5b5f611cf184828501611cbb565b91505092915050565b5f8115159050919050565b611d0e81611cfa565b82525050565b5f602082019050611d275f830184611d05565b92915050565b5f81519050919050565b5f82825260208201905092915050565b8281835e5f83830152505050565b5f601f19601f8301169050919050565b5f611d6f82611d2d565b611d798185611d37565b9350611d89818560208601611d47565b611d9281611d55565b840191505092915050565b5f6020820190508181035f830152611db58184611d65565b905092915050565b5f819050919050565b611dcf81611dbd565b8114611dd9575f5ffd5b50565b5f81359050611dea81611dc6565b92915050565b5f60208284031215611e0557611e04611c72565b5b5f611e1284828501611ddc565b91505092915050565b5f73ffffffffffffffffffffffffffffffffffffffff82169050919050565b5f611e4482611e1b565b9050919050565b611e5481611e3a565b82525050565b5f602082019050611e6d5f830184611e4b565b92915050565b611e7c81611e3a565b8114611e86575f5ffd5b50565b5f81359050611e9781611e73565b92915050565b5f5f60408385031215611eb357611eb2611c72565b5b5f611ec085828601611e89565b9250506020611ed185828601611ddc565b9150509250929050565b5f5f5f60608486031215611ef257611ef1611c72565b5b5f611eff86828701611e89565b9350506020611f1086828701611e89565b9250506040611f2186828701611ddc565b9150509250925092565b5f5ffd5b5f5ffd5b7f4e487b71000000000000000000000000000000000000000000000000000000005f52604160045260245ffd5b611f6982611d55565b810181811067ffffffffffffffff82111715611f8857611f87611f33565b5b80604052505050565b5f611f9a611c69565b9050611fa68282611f60565b919050565b5f67ffffffffffffffff821115611fc557611fc4611f33565b5b611fce82611d55565b9050602081019050919050565b828183375f83830152505050565b5f611ffb611ff684611fab565b611f91565b90508281526020810184848401111561201757612016611f2f565b5b612022848285611fdb565b509392505050565b5f82601f83011261203e5761203d611f2b565b5b813561204e848260208601611fe9565b91505092915050565b5f5f5f6060848603121561206e5761206d611c72565b5b5f61207b86828701611e89565b935050602084013567ffffffffffffffff81111561209c5761209b611c76565b5b6120a88682870161202a565b925050604084013567ffffffffffffffff8111156120c9576120c8611c76565b5b6120d58682870161202a565b9150509250925092565b6120e881611dbd565b82525050565b5f6020820190506121015f8301846120df565b92915050565b5f6020828403121561211c5761211b611c72565b5b5f61212984828501611e89565b91505092915050565b61213b81611cfa565b8114612145575f5ffd5b50565b5f8135905061215681612132565b92915050565b5f5f6040838503121561217257612171611c72565b5b5f61217f85828601611e89565b925050602061219085828601612148565b9150509250929050565b5f5f604083850312156121b0576121af611c72565b5b5f6121bd85828601611e89565b925050602083013567ffffffffffffffff8111156121de576121dd611c76565b5b6121ea8582860161202a565b9150509250929050565b5f67ffffffffffffffff82111561220e5761220d611f33565b5b61221782611d55565b9050602081019050919050565b5f612236612231846121f4565b611f91565b90508281526020810184848401111561225257612251611f2f565b5b61225d848285611fdb565b509392505050565b5f82601f83011261227957612278611f2b565b5b8135612289848260208601612224565b91505092915050565b5f5f5f5f608085870312156122aa576122a9611c72565b5b5f6122b787828801611e89565b94505060206122c887828801611e89565b93505060406122d987828801611ddc565b925050606085013567ffffffffffffffff8111156122fa576122f9611c76565b5b61230687828801612265565b91505092959194509250565b5f5f6040838503121561232857612327611c72565b5b5f61233585828601611e89565b925050602061234685828601611e89565b9150509250929050565b7f4e487b71000000000000000000000000000000000000000000000000000000005f52602260045260245ffd5b5f600282049050600182168061239457607f821691505b6020821081036123a7576123a6612350565b5b50919050565b5f6060820190506123c05f830186611e4b565b6123cd60208301856120df565b6123da6040830184611e4b565b949350505050565b5f81905092915050565b5f6123f682611d2d565b61240081856123e2565b9350612410818560208601611d47565b80840191505092915050565b5f61242782846123ec565b915081905092915050565b7f496e7465726e20616c726561647920686173207468697320736b696c6c2062615f8201527f6467650000000000000000000000000000000000000000000000000000000000602082015250565b5f61248c602383611d37565b915061249782612432565b604082019050919050565b5f6020820190508181035f8301526124b981612480565b9050919050565b7f4e487b71000000000000000000000000000000000000000000000000000000005f52601160045260245ffd5b5f6124f782611dbd565b91507fffffffffffffffffffffffffffffffffffffffffffffffffffffffffffffffff8203612529576125286124c0565b5b600182019050919050565b5f6060820190506125475f8301866120df565b81810360208301526125598185611d65565b9050818103604083015261256d8184611d65565b9050949350505050565b5f61258282856123ec565b915061258e82846123ec565b91508190509392505050565b5f819050815f5260205f209050919050565b5f6020601f8301049050919050565b5f82821b905092915050565b5f600883026125f67fffffffffffffffffffffffffffffffffffffffffffffffffffffffffffffffff826125bb565b61260086836125bb565b95508019841693508086168417925050509392505050565b5f819050919050565b5f61263b61263661263184611dbd565b612618565b611dbd565b9050919050565b5f819050919050565b61265483612621565b61266861266082612642565b8484546125c7565b825550505050565b5f5f905090565b61267f612670565b61268a81848461264b565b505050565b5b818110156126ad576126a25f82612677565b600181019050612690565b5050565b601f8211156126f2576126c38161259a565b6126cc846125ac565b810160208510156126db578190505b6126ef6126e7856125ac565b83018261268f565b50505b505050565b5f82821c905092915050565b5f6127125f19846008026126f7565b1980831691505092915050565b5f61272a8383612703565b9150826002028217905092915050565b61274382611d2d565b67ffffffffffffffff81111561275c5761275b611f33565b5b612766825461237d565b6127718282856126b1565b5f60209050601f8311600181146127a2575f8415612790578287015190505b61279a858261271f565b865550612801565b601f1984166127b08661259a565b5f5b828110156127d7578489015182556001820191506020850194506020810190506127b2565b868310156127f457848901516127f0601f891682612703565b8355505b6001600288020188555050505b505050505050565b5f81519050919050565b5f82825260208201905092915050565b5f61282d82612809565b6128378185612813565b9350612847818560208601611d47565b61285081611d55565b840191505092915050565b5f60808201905061286e5f830187611e4b565b61287b6020830186611e4b565b61288860408301856120df565b818103606083015261289a8184612823565b905095945050505050565b5f815190506128b381611ca5565b92915050565b5f602082840312156128ce576128cd611c72565b5b5f6128db848285016128a5565b91505092915050565b5f6040820190506128f75f830185611e4b565b61290460208301846120df565b9392505050565b7f4e487b71000000000000000000000000000000000000000000000000000000005f52601260045260245ffdfea2646970667358221220e057f5c2dc67231f16cd59f164dbdc0e38a39f824b13bd723f7b6f6afe60e06364736f6c634300081c0033",
  "linkReferences": {},
  "deployedLinkReferences": {},
  "immutableReferences": {},
  "inputSourceName": "project/contracts/InternBadges.sol",
  "buildInfoId": "solc-0_8_28-30d66b2d9b10b4a2a65515dd5402ae3fb36ab195"
}